:03000000020006F5
:03005F0002000399
:0300030002008870
:2000620075B0DE75A0DE7590DE7580DE75B0AD75A0AD7590AD7580AD75B00075A0007590AB
:200082000075800080FEE4F508F509C3E4950874808509F063F08095F0505EAC0874E02523
:2000A20009FDAB0874102B2400F9E434E0FAEBF5F0A4F8EB142400F582E434E0F583E02849
:2000C200F889828A83F08C828D83E8F074082B2400FEE434E0FF74182B2400FCE434E0FD9C
:2000E20085088274E02509F583E0F4FB8C828D83F08E828F83EBF0803AAE0874E02509FF2A
:20010200AD0874102D2400F582E434E0F583E4F08E828F83F074082D2400FEE434E0FF7450
:20012200182D2400F582E434E0F58374FFF08E828F83F00508E4B508020509C3E5089408EE
:20014200E50964809480500302008D90FF02E4F074E0A3F090FF047420F0E4A3F07E007FFE
:2001620000EE2410F582EF34FFF5838E05EDF5F0A48DF0A4FDF00EBE00010FC3EE9410EF13
:200182006480948040DB7E007F00EE2420F582EF34FFF5838E05EDC454F0FD3395E0FCEEF3
:2001A2004205EF4204EDF00EBE00010FC3EE9410EF6480948040D390FF007401F090FF0135
:2001C200E0FF70F9FEFF8E8274E02FF583E0F5800EBE00010FC3EE9420EF6480948040E62A
:0301E200020062B6
:06003500E478FFF6D8FD9F
:200013007900E94400601B7A009001E9780175A000E493F2A308B8000205A0D9F4DAF275A9
:02003300A0FF2C
:20003B007800E84400600A790175A000E4F309D8FC7800E84400600C7900900001E4F0A3C3
:04005B00D8FCD9FAFA
:0D0006007581091201E5E582600302000327
:0401E50075820022FD
:00000001FF
