:03000000020006F5
:03005F0002000399
:0300030002008870
:2000620075B0DE75A0DE7590DE7580DE75B0AD75A0AD7590AD7580AD75B00075A0007590AB
:200082000075800080FE7E007F00C3E49E74808FF063F08095F050688E04EFCC25E0CC33D5
:2000A20024E0FD8E088F098E828F83C007C006C005C0041201E1AA82AB83D004D005D0060A
:2000C200D0078E01E914C2D575F00230E704B2D5F404A430D50AF42401C5F0F43400C5F0C5
:2000E2002400F58274E035F0F583E0F8A3E0F9E82AF8E93BF98C828D83E8F0E9A3F08014F1
:200102008E04EFCC25E0CC33FD8C8274E02DF583E4F0A3F00EBE00010FC3EE9408EF648025
:200122009480500302008C90FF027434F07412A3F090FF02E0FEA3E08E8090FF02E0A3E092
:20014200FF8F8090FF047478F07456A3F090FF04E0FEA3E08E8090FF04E0A3E0FF8F807E3F
:20016200007F00EE2420F582EF34FFF5838E05EDC454F0FD3395E0FCEE4205EF4204EDF04B
:200182000EBE00010FC3EE9410EF6480948040D37E007F00EE2420F582EF34FFF583E0F51D
:2001A200800EBE00010FC3EE9410EF6480948040E37E007F008E04EFCC25E0CC33FD8C8229
:1F01C20074E02DF583E0FCA3E0FD8C800EBE00010FC3EE9408EF6480948040D902006230
:06003500E478FFF6D8FD9F
:200013007900E94400601B7A00900202780175A000E493F2A308B8000205A0D9F4DAF2758F
:02003300A0FF2C
:1D01E100E5828508F0A4C582C0F08509F0A4D0F025F0C5838508F0A42583F58322E0
:20003B007800E84400600A790175A000E4F309D8FC7800E84400600C7900900001E4F0A3C3
:04005B00D8FCD9FAFA
:0D0006007581091201FEE58260030200030E
:0401FE0075820022E4
:00000001FF
