:03000000020006F5
:03005F0002000399
:0300030002008870
:2000620075B0DE75A0DE7590DE7580DE75B0AD75A0AD7590AD7580AD75B00075A0007590AB
:200082000075800080FE7E007F00C3E49E74808FF063F08095F0503C8E0474E02FFD8E03AF
:2000A200EBF5F0A4FAEB142400F582E434E0F583E0F92AFA8C828D83F074082B2400FCE410
:2000C20034E0FD8E8274E02FF583E0F4FB8C828D83F0801A8E8274E02FF583E4F08E0574A5
:2000E200082D2400F582E434E0F58374FFF00EBE00010FC3EE9408EF64809480408C90FFF0
:2001020002E4F074E0A3F090FF047410F0E4A3F07E007F00EE2420F582EF34FFF5838E05CF
:20012200EDC454F0FD3395E0FCEE4205EF4204EDF00EBE00010FC3EE9410EF648094804088
:20014200D390FF007401F07E007F008E8274E02FF583E0F5800EBE00010FC3EE9410EF64F5
:0801620080948040E602006277
:06003500E478FFF6D8FD9F
:200013007900E94400601B7A0090016E780175A000E493F2A308B8000205A0D9F4DAF27524
:02003300A0FF2C
:20003B007800E84400600A790175A000E4F309D8FC7800E84400600C7900900001E4F0A3C3
:04005B00D8FCD9FAFA
:0D00060075810712016AE5826003020003A4
:04016A007582002278
:00000001FF
