:03000000020006F5
:03005F0002000399
:0300030002008870
:2000620075B0DE75A0DE7590DE7580DE75B0AD75A0AD7590AD7580AD75B00075A0007590AB
:200082000075800080FE9000B8E493FE740193FF8E828F837434F07412A3F08E828F83E052
:1200A200FCA3E08C808E828F83E0A3E0FE8E80020062CC
:0200B80002FF45
:06003500E478FFF6D8FD9F
:200013007900E94400601B7A009000BA780175A000E493F2A308B8000205A0D9F4DAF275D9
:02003300A0FF2C
:20003B007800E84400600A790175A000E4F309D8FC7800E84400600C7900900001E4F0A3C3
:04005B00D8FCD9FAFA
:0D0006007581071200B4E58260030200035B
:0400B400758200222F
:00000001FF
